:03000000020026D5
:0C002600787FE4F6D8FD75812102006DA2
:1001DB000A09000000000000000000000A130000E4
:0801EB0000000000000000000C
:0B020A00EF1FAC0670011E4C70F622C6
:07018E007F307E7512019520
:10019500E4FC7D6EAA06AB07D3EB9400EA9400401D
:1001A50007EB1B70F31A80F0ED1D70011CED4C7010
:0101B500E366
:0101B6002226
:1001F400758920758DFA758BFAE4F587759850D258
:06020400AFD2ACD28E2245
:08021E008F993099FDC299226D
:02000300AE0746
:10000500E4FD7F7E12021EEDC39E500C74092DF88F
:0D001500E6FF12021E0D80EF7FEF02021EBB
:0600B2008B1D8A1E891F50
:1000B800E4F520F521FCECC39D501AAB1DAA1EA93E
:1000C8001F8C827583001201062521F521E4352055
:1000D800F5200C80E1C3E49521F521E49520F52075
:1000E800AB1DAA1EA91F8C82758300120133EC7CFC
:0E00F8000029F9EC3AFA900001E521020133EB
:0601B7007A00E4FD7F1256
:1001BD007509FF750A068F0B8D0C8A0D8B0E7B0052
:0E01CD007A0079097D061200B27F0802000355
:10015500E4F5907FB87E0B1201951201F4E590B499
:1001650001107B011201B712018EE508B4EFF3E42B
:10017500F508E590B410E67B021201B712018EE591
:0901850008B4EFF3E4F50880D49E
:03002300020215C1
:09021500309805859908C2983261
:10003200020155E493A3F8E493A34003F68001F28E
:1000420008DFF48029E493A3F85407240CC8C333CF
:10005200C4540F4420C8834004F456800146F6DF9E
:10006200E4800B01020408102040809001DBE47E52
:10007200019360BCA3FF543F30E509541FFEE49393
:10008200A360010ECF54C025E060A840B8E493A35A
:10009200FAE493A3F8E493A3C8C582C8CAC583CA85
:1000A200F0A3C8C582C8CAC583CADFE9DEE780BE3D
:0101F300000B
:10010600BB010CE58229F582E5833AF583E02250AE
:1001160006E92582F8E622BBFE06E92582F8E222F8
:0D012600E58229F582E5833AF583E4932212
:10013300F8BB010DE58229F582E5833AF583E8F002
:10014300225006E92582C8F622BBFE05E92582C8AE
:02015300F22296
:00000001FF
